{
  "contractName": "Splitter",
  "abi": [
    {
      "constant": false,
      "inputs": [],
      "name": "unpause",
      "outputs": [],
      "payable": false,
      "stateMutability": "nonpayable",
      "type": "function"
    },
    {
      "constant": true,
      "inputs": [
        {
          "internalType": "address",
          "name": "account",
          "type": "address"
        }
      ],
      "name": "isPauser",
      "outputs": [
        {
          "internalType": "bool",
          "name": "",
          "type": "bool"
        }
      ],
      "payable": false,
      "stateMutability": "view",
      "type": "function"
    },
    {
      "constant": true,
      "inputs": [],
      "name": "paused",
      "outputs": [
        {
          "internalType": "bool",
          "name": "",
          "type": "bool"
        }
      ],
      "payable": false,
      "stateMutability": "view",
      "type": "function"
    },
    {
      "constant": true,
      "inputs": [],
      "name": "aliceAddress",
      "outputs": [
        {
          "internalType": "address",
          "name": "",
          "type": "address"
        }
      ],
      "payable": false,
      "stateMutability": "view",
      "type": "function"
    },
    {
      "constant": false,
      "inputs": [],
      "name": "renouncePauser",
      "outputs": [],
      "payable": false,
      "stateMutability": "nonpayable",
      "type": "function"
    },
    {
      "constant": false,
      "inputs": [
        {
          "internalType": "address",
          "name": "account",
          "type": "address"
        }
      ],
      "name": "addPauser",
      "outputs": [],
      "payable": false,
      "stateMutability": "nonpayable",
      "type": "function"
    },
    {
      "constant": false,
      "inputs": [],
      "name": "pause",
      "outputs": [],
      "payable": false,
      "stateMutability": "nonpayable",
      "type": "function"
    },
    {
      "constant": true,
      "inputs": [],
      "name": "aliceBalance",
      "outputs": [
        {
          "internalType": "uint256",
          "name": "",
          "type": "uint256"
        }
      ],
      "payable": false,
      "stateMutability": "view",
      "type": "function"
    },
    {
      "constant": true,
      "inputs": [],
      "name": "carolBalance",
      "outputs": [
        {
          "internalType": "uint256",
          "name": "",
          "type": "uint256"
        }
      ],
      "payable": false,
      "stateMutability": "view",
      "type": "function"
    },
    {
      "constant": true,
      "inputs": [],
      "name": "bobBalance",
      "outputs": [
        {
          "internalType": "uint256",
          "name": "",
          "type": "uint256"
        }
      ],
      "payable": false,
      "stateMutability": "view",
      "type": "function"
    },
    {
      "constant": true,
      "inputs": [],
      "name": "bobAddress",
      "outputs": [
        {
          "internalType": "address",
          "name": "",
          "type": "address"
        }
      ],
      "payable": false,
      "stateMutability": "view",
      "type": "function"
    },
    {
      "constant": true,
      "inputs": [],
      "name": "carolAddress",
      "outputs": [
        {
          "internalType": "address",
          "name": "",
          "type": "address"
        }
      ],
      "payable": false,
      "stateMutability": "view",
      "type": "function"
    },
    {
      "inputs": [
        {
          "internalType": "address",
          "name": "_aliceAddress",
          "type": "address"
        },
        {
          "internalType": "address",
          "name": "_bobAddress",
          "type": "address"
        },
        {
          "internalType": "address",
          "name": "_carolAddress",
          "type": "address"
        }
      ],
      "payable": false,
      "stateMutability": "nonpayable",
      "type": "constructor"
    },
    {
      "payable": false,
      "stateMutability": "nonpayable",
      "type": "fallback"
    },
    {
      "anonymous": false,
      "inputs": [
        {
          "indexed": true,
          "internalType": "address",
          "name": "aliceCurrentAddress",
          "type": "address"
        },
        {
          "indexed": false,
          "internalType": "uint256",
          "name": "value",
          "type": "uint256"
        }
      ],
      "name": "LogSplit",
      "type": "event"
    },
    {
      "anonymous": false,
      "inputs": [
        {
          "indexed": true,
          "internalType": "address",
          "name": "withdranToAddress",
          "type": "address"
        },
        {
          "indexed": false,
          "internalType": "uint256",
          "name": "value",
          "type": "uint256"
        }
      ],
      "name": "LogWithdraw",
      "type": "event"
    },
    {
      "anonymous": false,
      "inputs": [
        {
          "indexed": true,
          "internalType": "address",
          "name": "formAddress",
          "type": "address"
        },
        {
          "indexed": true,
          "internalType": "address",
          "name": "toAddress",
          "type": "address"
        }
      ],
      "name": "LogChangeAddress",
      "type": "event"
    },
    {
      "anonymous": false,
      "inputs": [
        {
          "indexed": false,
          "internalType": "address",
          "name": "account",
          "type": "address"
        }
      ],
      "name": "Paused",
      "type": "event"
    },
    {
      "anonymous": false,
      "inputs": [
        {
          "indexed": false,
          "internalType": "address",
          "name": "account",
          "type": "address"
        }
      ],
      "name": "Unpaused",
      "type": "event"
    },
    {
      "anonymous": false,
      "inputs": [
        {
          "indexed": true,
          "internalType": "address",
          "name": "account",
          "type": "address"
        }
      ],
      "name": "PauserAdded",
      "type": "event"
    },
    {
      "anonymous": false,
      "inputs": [
        {
          "indexed": true,
          "internalType": "address",
          "name": "account",
          "type": "address"
        }
      ],
      "name": "PauserRemoved",
      "type": "event"
    },
    {
      "constant": false,
      "inputs": [],
      "name": "split",
      "outputs": [],
      "payable": true,
      "stateMutability": "payable",
      "type": "function"
    },
    {
      "constant": false,
      "inputs": [],
      "name": "withdraw",
      "outputs": [],
      "payable": false,
      "stateMutability": "nonpayable",
      "type": "function"
    },
    {
      "constant": false,
      "inputs": [
        {
          "internalType": "address",
          "name": "_newAddress",
          "type": "address"
        }
      ],
      "name": "changeAliceAddress",
      "outputs": [],
      "payable": false,
      "stateMutability": "nonpayable",
      "type": "function"
    },
    {
      "constant": false,
      "inputs": [
        {
          "internalType": "address",
          "name": "_newAddress",
          "type": "address"
        }
      ],
      "name": "changeBobAddress",
      "outputs": [],
      "payable": false,
      "stateMutability": "nonpayable",
      "type": "function"
    },
    {
      "constant": false,
      "inputs": [
        {
          "internalType": "address",
          "name": "_newAddress",
          "type": "address"
        }
      ],
      "name": "changeCarolAddress",
      "outputs": [],
      "payable": false,
      "stateMutability": "nonpayable",
      "type": "function"
    }
  ],
  "bytecode": "0x60806040523480156200001157600080fd5b5060405162002b4d38038062002b4d833981810160405260608110156200003757600080fd5b810190808051906020019092919080519060200190929190805190602001909291905050506200007c620000706200016260201b60201c565b6200016a60201b60201c565b6000600160006101000a81548160ff021916908315150217905550826001806101000a81548173ffffffffffffffffffffffffffffffffffffffff021916908373ffffffffffffffffffffffffffffffffffffffff16021790555081600260006101000a81548173ffffffffffffffffffffffffffffffffffffffff021916908373ffffffffffffffffffffffffffffffffffffffff16021790555080600360006101000a81548173ffffffffffffffffffffffffffffffffffffffff021916908373ffffffffffffffffffffffffffffffffffffffff1602179055505050506200038f565b600033905090565b62000185816000620001cb60201b6200243b1790919060201c565b8073ffffffffffffffffffffffffffffffffffffffff167f6719d08c1888103bea251a4ed56406bd0c3e69723c8a1686e017e7bbe159b6f860405160405180910390a250565b620001dd8282620002af60201b60201c565b1562000251576040517f08c379a000000000000000000000000000000000000000000000000000000000815260040180806020018281038252601f8152602001807f526f6c65733a206163636f756e7420616c72656164792068617320726f6c650081525060200191505060405180910390fd5b60018260000160008373ffffffffffffffffffffffffffffffffffffffff1673ffffffffffffffffffffffffffffffffffffffff16815260200190815260200160002060006101000a81548160ff0219169083151502179055505050565b60008073ffffffffffffffffffffffffffffffffffffffff168273ffffffffffffffffffffffffffffffffffffffff16141562000338576040517f08c379a000000000000000000000000000000000000000000000000000000000815260040180806020018281038252602281526020018062002b2b6022913960400191505060405180910390fd5b8260000160008373ffffffffffffffffffffffffffffffffffffffff1673ffffffffffffffffffffffffffffffffffffffff16815260200190815260200160002060009054906101000a900460ff16905092915050565b61278c806200039f6000396000f3fe6080604052600436106100fe5760003560e01c806382dc1ec411610095578063c4e702e511610064578063c4e702e51461040d578063cd922de214610438578063d2392e1d1461048f578063e69336a0146104e0578063f765417614610537576100fe565b806382dc1ec41461034f5780638456cb59146103a05780638ba4848a146103b75780639f9ca859146103e2576100fe565b806346fbf68e116100d157806346fbf68e146102495780635c975abb146102b25780636d54f071146102e15780636ef8d66d14610338576100fe565b806314cf8a43146101795780633ccfd60b146101ca5780633f4ba83a146101e1578063404e1039146101f8575b34801561010a57600080fd5b506040517f08c379a00000000000000000000000000000000000000000000000000000000081526004018080602001828103825260148152602001807f4e6f2066616c6c6261636b2066756e6374696f6e00000000000000000000000081525060200191505060405180910390fd5b34801561018557600080fd5b506101c86004803603602081101561019c57600080fd5b81019080803573ffffffffffffffffffffffffffffffffffffffff169060200190929190505050610541565b005b3480156101d657600080fd5b506101df610a9a565b005b3480156101ed57600080fd5b506101f6610f67565b005b34801561020457600080fd5b506102476004803603602081101561021b57600080fd5b81019080803573ffffffffffffffffffffffffffffffffffffffff1690602001909291905050506110d5565b005b34801561025557600080fd5b506102986004803603602081101561026c57600080fd5b81019080803573ffffffffffffffffffffffffffffffffffffffff169060200190929190505050611630565b604051808215151515815260200191505060405180910390f35b3480156102be57600080fd5b506102c761164d565b604051808215151515815260200191505060405180910390f35b3480156102ed57600080fd5b506102f6611664565b604051808273ffffffffffffffffffffffffffffffffffffffff1673ffffffffffffffffffffffffffffffffffffffff16815260200191505060405180910390f35b34801561034457600080fd5b5061034d611689565b005b34801561035b57600080fd5b5061039e6004803603602081101561037257600080fd5b81019080803573ffffffffffffffffffffffffffffffffffffffff16906020019092919050505061169b565b005b3480156103ac57600080fd5b506103b561170c565b005b3480156103c357600080fd5b506103cc61187a565b6040518082815260200191505060405180910390f35b3480156103ee57600080fd5b506103f7611880565b6040518082815260200191505060405180910390f35b34801561041957600080fd5b50610422611886565b6040518082815260200191505060405180910390f35b34801561044457600080fd5b5061044d61188c565b604051808273ffffffffffffffffffffffffffffffffffffffff1673ffffffffffffffffffffffffffffffffffffffff16815260200191505060405180910390f35b34801561049b57600080fd5b506104de600480360360208110156104b257600080fd5b81019080803573ffffffffffffffffffffffffffffffffffffffff1690602001909291905050506118b2565b005b3480156104ec57600080fd5b506104f5611e0d565b604051808273ffffffffffffffffffffffffffffffffffffffff1673ffffffffffffffffffffffffffffffffffffffff16815260200191505060405180910390f35b61053f611e33565b005b600160009054906101000a900460ff16156105c4576040517f08c379a00000000000000000000000000000000000000000000000000000000081526004018080602001828103825260108152602001807f5061757361626c653a207061757365640000000000000000000000000000000081525060200191505060405180910390fd5b6001809054906101000a900473ffffffffffffffffffffffffffffffffffffffff16818173ffffffffffffffffffffffffffffffffffffffff163373ffffffffffffffffffffffffffffffffffffffff1614610688576040517f08c379a000000000000000000000000000000000000000000000000000000000815260040180806020018281038252601e8152602001807f43616e6e6f74206368616e676520746f2073616d6520616464726573732e000081525060200191505060405180910390fd5b8073ffffffffffffffffffffffffffffffffffffffff166001809054906101000a900473ffffffffffffffffffffffffffffffffffffffff1673ffffffffffffffffffffffffffffffffffffffff16141561074b576040517f08c379a00000000000000000000000000000000000000000000000000000000081526004018080602001828103825260208152602001807f43616e6e6f74206368616e676520746f20416c6963657320616464726573732e81525060200191505060405180910390fd5b8073ffffffffffffffffffffffffffffffffffffffff16600260009054906101000a900473ffffffffffffffffffffffffffffffffffffffff1673ffffffffffffffffffffffffffffffffffffffff16141561080f576040517f08c379a000000000000000000000000000000000000000000000000000000000815260040180806020018281038252601e8152602001807f43616e6e6f74206368616e676520746f20426f627320616464726573732e000081525060200191505060405180910390fd5b8073ffffffffffffffffffffffffffffffffffffffff16600360009054906101000a900473ffffffffffffffffffffffffffffffffffffffff1673ffffffffffffffffffffffffffffffffffffffff1614156108d3576040517f08c379a00000000000000000000000000000000000000000000000000000000081526004018080602001828103825260208152602001807f43616e6e6f74206368616e676520746f204361726f6c7320416464726573732e81525060200191505060405180910390fd5b8073ffffffffffffffffffffffffffffffffffffffff16600073ffffffffffffffffffffffffffffffffffffffff161415610976576040517f08c379a000000000000000000000000000000000000000000000000000000000815260040180806020018281038252601d8152602001807f43616e6e6f74206368616e676520746f2030783020416464726573732e00000081525060200191505060405180910390fd5b8073ffffffffffffffffffffffffffffffffffffffff163073ffffffffffffffffffffffffffffffffffffffff1614156109fb576040517f08c379a00000000000000000000000000000000000000000000000000000000081526004018080602001828103825260228152602001806127146022913960400191505060405180910390fd5b8073ffffffffffffffffffffffffffffffffffffffff163373ffffffffffffffffffffffffffffffffffffffff167f8c37eab50c2486005a3d13eb7dcef5a808747d1fe4f7c7700263fc9095d1ee7d60405160405180910390a3826001806101000a81548173ffffffffffffffffffffffffffffffffffffffff021916908373ffffffffffffffffffffffffffffffffffffffff160217905550505050565b600160009054906101000a900460ff1615610b1d576040517f08c379a00000000000000000000000000000000000000000000000000000000081526004018080602001828103825260108152602001807f5061757361626c653a207061757365640000000000000000000000000000000081525060200191505060405180910390fd5b6001809054906101000a900473ffffffffffffffffffffffffffffffffffffffff1673ffffffffffffffffffffffffffffffffffffffff163373ffffffffffffffffffffffffffffffffffffffff161480610bc55750600260009054906101000a900473ffffffffffffffffffffffffffffffffffffffff1673ffffffffffffffffffffffffffffffffffffffff163373ffffffffffffffffffffffffffffffffffffffff16145b80610c1d5750600360009054906101000a900473ffffffffffffffffffffffffffffffffffffffff1673ffffffffffffffffffffffffffffffffffffffff163373ffffffffffffffffffffffffffffffffffffffff16145b610c72576040517f08c379a00000000000000000000000000000000000000000000000000000000081526004018080602001828103825260258152602001806126ef6025913960400191505060405180910390fd5b6001809054906101000a900473ffffffffffffffffffffffffffffffffffffffff1673ffffffffffffffffffffffffffffffffffffffff163373ffffffffffffffffffffffffffffffffffffffff161415610d6d576000600454905060006004819055503373ffffffffffffffffffffffffffffffffffffffff167f4ce7033d118120e254016dccf195288400b28fc8936425acd5f17ce2df3ab708826040518082815260200191505060405180910390a23373ffffffffffffffffffffffffffffffffffffffff166108fc829081150290604051600060405180830381858888f19350505050158015610d6a573d6000803e3d6000fd5b50505b600260009054906101000a900473ffffffffffffffffffffffffffffffffffffffff1673ffffffffffffffffffffffffffffffffffffffff163373ffffffffffffffffffffffffffffffffffffffff161415610e69576000600554905060006005819055503373ffffffffffffffffffffffffffffffffffffffff167f4ce7033d118120e254016dccf195288400b28fc8936425acd5f17ce2df3ab708826040518082815260200191505060405180910390a23373ffffffffffffffffffffffffffffffffffffffff166108fc829081150290604051600060405180830381858888f19350505050158015610e66573d6000803e3d6000fd5b50505b600360009054906101000a900473ffffffffffffffffffffffffffffffffffffffff1673ffffffffffffffffffffffffffffffffffffffff163373ffffffffffffffffffffffffffffffffffffffff161415610f65576000600654905060006006819055503373ffffffffffffffffffffffffffffffffffffffff167f4ce7033d118120e254016dccf195288400b28fc8936425acd5f17ce2df3ab708826040518082815260200191505060405180910390a23373ffffffffffffffffffffffffffffffffffffffff166108fc829081150290604051600060405180830381858888f19350505050158015610f62573d6000803e3d6000fd5b50505b565b610f77610f726120c8565b611630565b610fcc576040517f08c379a000000000000000000000000000000000000000000000000000000000815260040180806020018281038252603081526020018061269e6030913960400191505060405180910390fd5b600160009054906101000a900460ff1661104e576040517f08c379a00000000000000000000000000000000000000000000000000000000081526004018080602001828103825260148152602001807f5061757361626c653a206e6f742070617573656400000000000000000000000081525060200191505060405180910390fd5b6000600160006101000a81548160ff0219169083151502179055507f5db9ee0a495bf2e6ff9c91a7834c1ba4fdd244a5e8aa4e537bd38aeae4b073aa6110926120c8565b604051808273ffffffffffffffffffffffffffffffffffffffff1673ffffffffffffffffffffffffffffffffffffffff16815260200191505060405180910390a1565b600160009054906101000a900460ff1615611158576040517f08c379a00000000000000000000000000000000000000000000000000000000081526004018080602001828103825260108152602001807f5061757361626c653a207061757365640000000000000000000000000000000081525060200191505060405180910390fd5b600360009054906101000a900473ffffffffffffffffffffffffffffffffffffffff16818173ffffffffffffffffffffffffffffffffffffffff163373ffffffffffffffffffffffffffffffffffffffff161461121d576040517f08c379a000000000000000000000000000000000000000000000000000000000815260040180806020018281038252601e8152602001807f43616e6e6f74206368616e676520746f2073616d6520616464726573732e000081525060200191505060405180910390fd5b8073ffffffffffffffffffffffffffffffffffffffff166001809054906101000a900473ffffffffffffffffffffffffffffffffffffffff1673ffffffffffffffffffffffffffffffffffffffff1614156112e0576040517f08c379a00000000000000000000000000000000000000000000000000000000081526004018080602001828103825260208152602001807f43616e6e6f74206368616e676520746f20416c6963657320616464726573732e81525060200191505060405180910390fd5b8073ffffffffffffffffffffffffffffffffffffffff16600260009054906101000a900473ffffffffffffffffffffffffffffffffffffffff1673ffffffffffffffffffffffffffffffffffffffff1614156113a4576040517f08c379a000000000000000000000000000000000000000000000000000000000815260040180806020018281038252601e8152602001807f43616e6e6f74206368616e676520746f20426f627320616464726573732e000081525060200191505060405180910390fd5b8073ffffffffffffffffffffffffffffffffffffffff16600360009054906101000a900473ffffffffffffffffffffffffffffffffffffffff1673ffffffffffffffffffffffffffffffffffffffff161415611468576040517f08c379a00000000000000000000000000000000000000000000000000000000081526004018080602001828103825260208152602001807f43616e6e6f74206368616e676520746f204361726f6c7320416464726573732e81525060200191505060405180910390fd5b8073ffffffffffffffffffffffffffffffffffffffff16600073ffffffffffffffffffffffffffffffffffffffff16141561150b576040517f08c379a000000000000000000000000000000000000000000000000000000000815260040180806020018281038252601d8152602001807f43616e6e6f74206368616e676520746f2030783020416464726573732e00000081525060200191505060405180910390fd5b8073ffffffffffffffffffffffffffffffffffffffff163073ffffffffffffffffffffffffffffffffffffffff161415611590576040517f08c379a00000000000000000000000000000000000000000000000000000000081526004018080602001828103825260228152602001806127146022913960400191505060405180910390fd5b8073ffffffffffffffffffffffffffffffffffffffff163373ffffffffffffffffffffffffffffffffffffffff167f8c37eab50c2486005a3d13eb7dcef5a808747d1fe4f7c7700263fc9095d1ee7d60405160405180910390a382600360006101000a81548173ffffffffffffffffffffffffffffffffffffffff021916908373ffffffffffffffffffffffffffffffffffffffff160217905550505050565b60006116468260006120d090919063ffffffff16565b9050919050565b6000600160009054906101000a900460ff16905090565b6001809054906101000a900473ffffffffffffffffffffffffffffffffffffffff1681565b6116996116946120c8565b6121ae565b565b6116ab6116a66120c8565b611630565b611700576040517f08c379a000000000000000000000000000000000000000000000000000000000815260040180806020018281038252603081526020018061269e6030913960400191505060405180910390fd5b61170981612208565b50565b61171c6117176120c8565b611630565b611771576040517f08c379a000000000000000000000000000000000000000000000000000000000815260040180806020018281038252603081526020018061269e6030913960400191505060405180910390fd5b600160009054906101000a900460ff16156117f4576040517f08c379a00000000000000000000000000000000000000000000000000000000081526004018080602001828103825260108152602001807f5061757361626c653a207061757365640000000000000000000000000000000081525060200191505060405180910390fd5b60018060006101000a81548160ff0219169083151502179055507f62e78cea01bee320cd4e420270b5ea74000d11b0c9f74754ebdbfc544b05a2586118376120c8565b604051808273ffffffffffffffffffffffffffffffffffffffff1673ffffffffffffffffffffffffffffffffffffffff16815260200191505060405180910390a1565b60045481565b60065481565b60055481565b600260009054906101000a900473ffffffffffffffffffffffffffffffffffffffff1681565b600160009054906101000a900460ff1615611935576040517f08c379a00000000000000000000000000000000000000000000000000000000081526004018080602001828103825260108152602001807f5061757361626c653a207061757365640000000000000000000000000000000081525060200191505060405180910390fd5b600260009054906101000a900473ffffffffffffffffffffffffffffffffffffffff16818173ffffffffffffffffffffffffffffffffffffffff163373ffffffffffffffffffffffffffffffffffffffff16146119fa576040517f08c379a000000000000000000000000000000000000000000000000000000000815260040180806020018281038252601e8152602001807f43616e6e6f74206368616e676520746f2073616d6520616464726573732e000081525060200191505060405180910390fd5b8073ffffffffffffffffffffffffffffffffffffffff166001809054906101000a900473ffffffffffffffffffffffffffffffffffffffff1673ffffffffffffffffffffffffffffffffffffffff161415611abd576040517f08c379a00000000000000000000000000000000000000000000000000000000081526004018080602001828103825260208152602001807f43616e6e6f74206368616e676520746f20416c6963657320616464726573732e81525060200191505060405180910390fd5b8073ffffffffffffffffffffffffffffffffffffffff16600260009054906101000a900473ffffffffffffffffffffffffffffffffffffffff1673ffffffffffffffffffffffffffffffffffffffff161415611b81576040517f08c379a000000000000000000000000000000000000000000000000000000000815260040180806020018281038252601e8152602001807f43616e6e6f74206368616e676520746f20426f627320616464726573732e000081525060200191505060405180910390fd5b8073ffffffffffffffffffffffffffffffffffffffff16600360009054906101000a900473ffffffffffffffffffffffffffffffffffffffff1673ffffffffffffffffffffffffffffffffffffffff161415611c45576040517f08c379a00000000000000000000000000000000000000000000000000000000081526004018080602001828103825260208152602001807f43616e6e6f74206368616e676520746f204361726f6c7320416464726573732e81525060200191505060405180910390fd5b8073ffffffffffffffffffffffffffffffffffffffff16600073ffffffffffffffffffffffffffffffffffffffff161415611ce8576040517f08c379a000000000000000000000000000000000000000000000000000000000815260040180806020018281038252601d8152602001807f43616e6e6f74206368616e676520746f2030783020416464726573732e00000081525060200191505060405180910390fd5b8073ffffffffffffffffffffffffffffffffffffffff163073ffffffffffffffffffffffffffffffffffffffff161415611d6d576040517f08c379a00000000000000000000000000000000000000000000000000000000081526004018080602001828103825260228152602001806127146022913960400191505060405180910390fd5b8073ffffffffffffffffffffffffffffffffffffffff163373ffffffffffffffffffffffffffffffffffffffff167f8c37eab50c2486005a3d13eb7dcef5a808747d1fe4f7c7700263fc9095d1ee7d60405160405180910390a382600260006101000a81548173ffffffffffffffffffffffffffffffffffffffff021916908373ffffffffffffffffffffffffffffffffffffffff160217905550505050565b600360009054906101000a900473ffffffffffffffffffffffffffffffffffffffff1681565b600160009054906101000a900460ff1615611eb6576040517f08c379a00000000000000000000000000000000000000000000000000000000081526004018080602001828103825260108152602001807f5061757361626c653a207061757365640000000000000000000000000000000081525060200191505060405180910390fd5b60003411611f2c576040517f08c379a00000000000000000000000000000000000000000000000000000000081526004018080602001828103825260188152602001807f4e6f20455448207761732073656e7420746f2073706c6974000000000000000081525060200191505060405180910390fd5b6001809054906101000a900473ffffffffffffffffffffffffffffffffffffffff1673ffffffffffffffffffffffffffffffffffffffff163373ffffffffffffffffffffffffffffffffffffffff1614611fee576040517f08c379a00000000000000000000000000000000000000000000000000000000081526004018080602001828103825260138152602001807f4f6e6c7920416c6963652063616e2073656e640000000000000000000000000081525060200191505060405180910390fd5b61201661200560023461226290919063ffffffff16565b6005546122ac90919063ffffffff16565b60058190555061204461203360023461226290919063ffffffff16565b6006546122ac90919063ffffffff16565b60068190555061207261206160023461233490919063ffffffff16565b6004546122ac90919063ffffffff16565b6004819055503373ffffffffffffffffffffffffffffffffffffffff167f1f54a8a87c415d2557ff2f78f91dbfaa5b39e5adfc0895343b2f6409c0335524346040518082815260200191505060405180910390a2565b600033905090565b60008073ffffffffffffffffffffffffffffffffffffffff168273ffffffffffffffffffffffffffffffffffffffff161415612157576040517f08c379a00000000000000000000000000000000000000000000000000000000081526004018080602001828103825260228152602001806127366022913960400191505060405180910390fd5b8260000160008373ffffffffffffffffffffffffffffffffffffffff1673ffffffffffffffffffffffffffffffffffffffff16815260200190815260200160002060009054906101000a900460ff16905092915050565b6121c281600061237e90919063ffffffff16565b8073ffffffffffffffffffffffffffffffffffffffff167fcd265ebaf09df2871cc7bd4133404a235ba12eff2041bb89d9c714a2621c7c7e60405160405180910390a250565b61221c81600061243b90919063ffffffff16565b8073ffffffffffffffffffffffffffffffffffffffff167f6719d08c1888103bea251a4ed56406bd0c3e69723c8a1686e017e7bbe159b6f860405160405180910390a250565b60006122a483836040518060400160405280601a81526020017f536166654d6174683a206469766973696f6e206279207a65726f000000000000815250612516565b905092915050565b60008082840190508381101561232a576040517f08c379a000000000000000000000000000000000000000000000000000000000815260040180806020018281038252601b8152602001807f536166654d6174683a206164646974696f6e206f766572666c6f77000000000081525060200191505060405180910390fd5b8091505092915050565b600061237683836040518060400160405280601881526020017f536166654d6174683a206d6f64756c6f206279207a65726f00000000000000008152506125dc565b905092915050565b61238882826120d0565b6123dd576040517f08c379a00000000000000000000000000000000000000000000000000000000081526004018080602001828103825260218152602001806126ce6021913960400191505060405180910390fd5b60008260000160008373ffffffffffffffffffffffffffffffffffffffff1673ffffffffffffffffffffffffffffffffffffffff16815260200190815260200160002060006101000a81548160ff0219169083151502179055505050565b61244582826120d0565b156124b8576040517f08c379a000000000000000000000000000000000000000000000000000000000815260040180806020018281038252601f8152602001807f526f6c65733a206163636f756e7420616c72656164792068617320726f6c650081525060200191505060405180910390fd5b60018260000160008373ffffffffffffffffffffffffffffffffffffffff1673ffffffffffffffffffffffffffffffffffffffff16815260200190815260200160002060006101000a81548160ff0219169083151502179055505050565b600080831182906125c2576040517f08c379a00000000000000000000000000000000000000000000000000000000081526004018080602001828103825283818151815260200191508051906020019080838360005b8381101561258757808201518184015260208101905061256c565b50505050905090810190601f1680156125b45780820380516001836020036101000a031916815260200191505b509250505060405180910390fd5b5060008385816125ce57fe5b049050809150509392505050565b6000808314158290612689576040517f08c379a00000000000000000000000000000000000000000000000000000000081526004018080602001828103825283818151815260200191508051906020019080838360005b8381101561264e578082015181840152602081019050612633565b50505050905090810190601f16801561267b5780820380516001836020036101000a031916815260200191505b509250505060405180910390fd5b5082848161269357fe5b069050939250505056fe506175736572526f6c653a2063616c6c657220646f6573206e6f742068617665207468652050617573657220726f6c65526f6c65733a206163636f756e7420646f6573206e6f74206861766520726f6c654f6e6c7920416c6963652c20426f62206f72204361726f6c2063616e20776974686472617743616e6e6f74206368616e676520746f20436f6e747261637420416464726573732e526f6c65733a206163636f756e7420697320746865207a65726f2061646472657373a265627a7a723158200d105c5b0723aa39383c7bb0e8fab7bd7d9774032b31fba963a2ccb540980b6764736f6c634300050b0032526f6c65733a206163636f756e7420697320746865207a65726f2061646472657373",
  "source": "pragma solidity 0.5.11;\n\nimport \"./math/SafeMath.sol\";\nimport \"./lifecycle/Pausable.sol\";\n\ncontract Splitter is Pausable{\n  using SafeMath for uint256;\n\n  address public aliceAddress;\n  address public bobAddress;\n  address public carolAddress;\n\n//consider using mapping if more than 2\n  uint public aliceBalance;\n  uint public bobBalance;\n  uint public carolBalance;\n\n  event LogSplit(address indexed aliceCurrentAddress, uint value);\n  event LogWithdraw(address indexed withdranToAddress, uint value);\n  event LogChangeAddress(address indexed formAddress, address indexed toAddress);\n\n  modifier rejectInvalidAddresses(address _addressToChange, address _newAddress) {\n    require(msg.sender == _addressToChange, \"Cannot change to same address.\");\n    require(aliceAddress != _newAddress, \"Cannot change to Alices address.\");\n    require(bobAddress != _newAddress, \"Cannot change to Bobs address.\");\n    require(carolAddress != _newAddress, \"Cannot change to Carols Address.\");\n    require(address(0x0) != _newAddress, \"Cannot change to 0x0 Address.\");\n    require(address(this) != _newAddress, \"Cannot change to Contract Address.\");\n    emit LogChangeAddress(msg.sender, _newAddress);\n    _;\n  }\n\n  constructor (address _aliceAddress, address _bobAddress, address _carolAddress) public {\n    aliceAddress = _aliceAddress;\n    bobAddress = _bobAddress;\n    carolAddress = _carolAddress;\n  }\n\n  function () external {\n    revert(\"No fallback function\");\n  }\n\n  function split() public payable whenNotPaused{\n    require (msg.value > 0, \"No ETH was sent to split\");\n    require (msg.sender == aliceAddress, \"Only Alice can send\");\n\n    bobBalance = bobBalance.add(msg.value.div(2));\n    carolBalance = carolBalance.add(msg.value.div(2));\n    aliceBalance = aliceBalance.add(msg.value.mod(2));\n\n    emit LogSplit(msg.sender, msg.value);\n  }\n\n  function withdraw() public whenNotPaused{\n    require(msg.sender == aliceAddress || msg.sender == bobAddress || msg.sender == carolAddress, \"Only Alice, Bob or Carol can withdraw\");\n\n    if (msg.sender == aliceAddress) {\n      uint value = aliceBalance;\n      aliceBalance = 0;\n      emit LogWithdraw(msg.sender,value);\n      msg.sender.transfer(value);\n    }\n\n    if (msg.sender == bobAddress) {\n      uint value = bobBalance;\n      bobBalance = 0;\n      emit LogWithdraw(msg.sender,value);\n      msg.sender.transfer(value);\n    }\n\n    if (msg.sender == carolAddress) {\n      uint value = carolBalance;\n      carolBalance = 0;\n      emit LogWithdraw(msg.sender,value);\n      msg.sender.transfer(value);\n    }\n  }\n\n  function changeAliceAddress(address _newAddress) public whenNotPaused rejectInvalidAddresses (aliceAddress, _newAddress){\n    aliceAddress = _newAddress;\n  }\n\n  function changeBobAddress(address _newAddress) public whenNotPaused rejectInvalidAddresses (bobAddress, _newAddress){\n    bobAddress = _newAddress;\n  }\n\n  function changeCarolAddress(address _newAddress) public whenNotPaused rejectInvalidAddresses (carolAddress, _newAddress){\n    carolAddress = _newAddress;\n  }\n}\n",
  "sourcePath": "/home/vagrant/DAPPS/splitter/contracts/Splitter.sol",
  "compiler": {
    "name": "solc",
    "version": "0.5.11+commit.c082d0b4.Emscripten.clang"
  },
  "schemaVersion": "3.0.10",
  "updatedAt": "2019-09-12T05:28:46.504Z",
  "devdoc": {
    "methods": {
      "pause()": {
        "details": "Called by a pauser to pause, triggers stopped state."
      },
      "paused()": {
        "details": "Returns true if the contract is paused, and false otherwise."
      },
      "unpause()": {
        "details": "Called by a pauser to unpause, returns to normal state."
      }
    }
  },
  "userdoc": {
    "methods": {}
  }
}